:04000000EFEFFEF030
:020000040001F9
:10FCBC00010E006E0000002E60EFFEF01200050E2B
:10FCCC00006E0000002E67EFFEF012000B0E006EAF
:10FCDC000000002E6EEFFEF01200180E006E0000F9
:10FCEC00002E75EFFEF01200310E006E0000002E9B
:10FCFC007CEFFEF012003D0E006E0000002E83EF34
:10FD0C00FEF012007C0E006E0000002E8AEFFEF05A
:10FD1C001200010E016EF90E006E0000002E93EF22
:10FD2C00FEF0012E91EFFEF01200050E016EF90EA1
:10FD3C00006E0000002E9FEFFEF0012E9DEFFEF0F6
:10FD4C0012000A0E016EF90E006E0000002EABEFD1
:10FD5C00FEF0012EA9EFFEF01200190E016EF90E45
:10FD6C00006E0000002EB7EFFEF0012EB5EFFEF096
:10FD7C001200320E016EF90E006E0000002EC3EF61
:10FD8C00FEF0012EC1EFFEF01200640E016EF90EB2
:10FD9C00006E0000002ECFEFFEF0012ECDEFFEF036
:10FDAC001200C80E016EF90E006E0000002EDBEF83
:10FDBC00FEF0012ED9EFFEF01200FA0E016EF90ED4
:10FDCC00006E0000002EE7EFFEF0012EE5EFFEF0D6
:10FDDC001200EFEDFFF0F5EDFFF0CEB657EFFFF0B0
:10FDEC00080E006E0401D16FE3EDFEF0E3EDFEF0C2
:10FDFC00E3EDFEF0E3EDFEF0CEB657EFFFF0030EB1
:10FE0C00006E006E0401D16FE3EDFEF0E3EDFEF049
:10FE1C00E3EDFEF0E3EDFEF0CEB657EFFFF0460E4D
:10FE2C00006E006E0401D16FE3EDFEF0E3EDFEF029
:10FE3C00E3EDFEF0E3EDFEF0CEB657EFFFF0210E52
:10FE4C00006E006E0401D16FE3EDFEF0E3EDFEF009
:10FE5C00E3EDFEF0E3EDFEF0CEB657EFFFF0060E4D
:10FE6C00006E006E0401D16FE3EDFEF0E3EDFEF0E9
:10FE7C00E3EDFEF0E3EDFEF0CEB657EFFFF00E0E25
:10FE8C00006E006E0401D16FE3EDFEF0E3EDFEF0C9
:10FE9C00E3EDFEF0E3EDFEF0CEB657EFFFF0F6EF3C
:10FEAC00FEF0C00E006E0401D16FE3EDFEF0E3ED49
:10FEBC00FEF0E3EDFEF0E3EDFEF0CEA6F6EFFEF085
:10FECC00F90E006E0401D16FE3EDFEF0E3EDFEF0F0
:10FEDC00E3EDFEF0E3EDFEF0CEA6F6EFFEF0A40EA1
:10FEEC00006E0401D16FE3EDFEF0E3EDFEF0E3ED07
:10FEFC00FEF0E3EDFEF0CEA6F6EFFEF0B00E006ED7
:10FF0C000401D16FE3EDFEF0E3EDFEF0E3EDFEF066
:10FF1C00E3EDFEF0CEA6F6EFFEF0990E006E0401B6
:10FF2C00D16FE3EDFEF0E3EDFEF0E3EDFEF0E3ED7B
:10FF3C00FEF0CEA6F6EFFEF0920E006E0401D16F2D
:10FF4C00E3EDFEF0E3EDFEF0E3EDFEF0E3EDFEF0AD
:10FF5C00CEA6F6EFFEF0820E006E0401D16FE3ED3B
:10FF6C00FEF0E3EDFEF0E3EDFEF0E3EDFEF0CEA6E9
:10FF7C00F6EFFEF0F80E006E0401D16FE3EDFEF02B
:10FF8C00E3EDFEF0E3EDFEF0E3EDFEF0CEA6F6EFD2
:10FF9C00FEF0800E006E0401D16FE3EDFEF0E3ED98
:10FFAC00FEF0E3EDFEF0E3EDFEF0CEA6F6EFFEF094
:10FFBC00980E006E0401D16FE3EDFEF0E3EDFEF060
:10FFCC00E3EDFEF0E3EDFEF0CEA6F6EFFEF057EF1C
:10FFDC00FFF00001600EAD6F020EB16F1200040154
:10FFEC00D16BC16B186BC96B0401CE6B006BC687F0
:04FFFC000187120067
:020000040030CA
:10000000EC0D27C79FFFFFFFFFFFFFFFFFFFFFFF75
:10001000FFFFFFFFFFFFFFFFFFFFFFFFFFFFFFFFF0
:03002000FFFFFFE0
:00000001FF
