:1000000053ED00F059ED00F070ED00F07AED00F0E6
:100010000401C39781ED02F081ED02F0C38781ED09
:1000200002F081ED02F008EF00F0050E1C6E000EEC
:100030001E6E1F6E24EF00F01A2A31EF00F01C2E06
:1000400024EF00F0F7EFFFF0C3870A0E1B6E000EDF
:100050001A6E31EF00F0B4901D50C06F1E68FFEFB4
:10006000FFF00401000EFB6F000EFA6F1A4448EC1B
:1000700000F01FB2F7EFFFF01EB2F7EFFFF0C06E17
:100080001D6E81ED02F01B2E1CEF00F01FEF00F043
:10009000F926810C420C240C180C000C180C240CB2
:1000A000420C810C000C0001600EAD6F020EB16FAE
:1000B00012000401D36BC387286BCB97CB852985AE
:1000C0000401CE6B006BC68701870401D06BC06B47
:1000D000106BC86B0401CF890899C7890989120080
:1000E0000201030E3E6F02010C0E3F6F02012A0E49
:1000F000406F1200D68A0301639168816C81D690AB
:10010000AF909F80D692B490A480D694B890A880E7
:06011000D68ED68C120011
:10050200FA0E016EF90E006E0000002E85EF02F069
:08051200012E83EF02F012003C
:020000040001F9
:10FFDE0000EF00F0AFA0F7EFFFF0AF9015EF00F0DD
:10FFEE001000B4B02BEF00F0B8B0B890C06B1F6823
:02FFFE001000F1
:020000040030CA
:10000000EC0D27C79FFFFFFFFFFFFFFFFFFFFFFF75
:10001000FFFFFFFFFFFFFFFFFFFFFFFFFFFFFFFFF0
:03002000FFFFFFE0
:00000001FF
